{
  "contractName": "Elections",
  "abi": [
    {
      "constant": true,
      "inputs": [
        {
          "name": "",
          "type": "uint256"
        }
      ],
      "name": "Nominees",
      "outputs": [
        {
          "name": "",
          "type": "uint256"
        }
      ],
      "payable": false,
      "stateMutability": "view",
      "type": "function"
    },
    {
      "constant": false,
      "inputs": [
        {
          "name": "id",
          "type": "uint256"
        }
      ],
      "name": "Vote",
      "outputs": [
        {
          "name": "",
          "type": "uint256"
        }
      ],
      "payable": false,
      "stateMutability": "nonpayable",
      "type": "function"
    },
    {
      "constant": true,
      "inputs": [],
      "name": "getNominees_votes",
      "outputs": [
        {
          "name": "",
          "type": "uint256[10]"
        }
      ],
      "payable": false,
      "stateMutability": "view",
      "type": "function"
    }
  ],
  "bytecode": "0x6080604052604051806101400160405280600060ff168152602001600060ff168152602001600060ff168152602001600060ff168152602001600060ff168152602001600060ff168152602001600060ff168152602001600060ff168152602001600060ff168152602001600060ff16815250600090600a610082929190610095565b5034801561008f57600080fd5b506100ff565b82600a81019282156100c9579160200282015b828111156100c8578251829060ff169055916020019190600101906100a8565b5b5090506100d691906100da565b5090565b6100fc91905b808211156100f85760008160009055506001016100e0565b5090565b90565b6102128061010e6000396000f3fe608060405234801561001057600080fd5b50600436106100415760003560e01c806386c01a4414610046578063dcd6a5cd1461008c578063fc85ab64146100ce575b600080fd5b61004e610110565b6040518082600a60200280838360005b8381101561007957808201518184015260208101905061005e565b5050505090500191505060405180910390f35b6100b8600480360360208110156100a257600080fd5b810190808035906020019092919050505061015b565b6040518082815260200191505060405180910390f35b6100fa600480360360208110156100e457600080fd5b81019080803590602001909291905050506101ab565b6040518082815260200191505060405180910390f35b6101186101c3565b6000600a806020026040519081016040528092919082600a8015610151576020028201915b81548152602001906001019080831161013d575b5050505050905090565b600080821015801561016e575060098211155b61017757600080fd5b600082600a811061018457fe5b0160008154809291906001019190505550600082600a81106101a257fe5b01549050919050565b600081600a81106101b857fe5b016000915090505481565b604051806101400160405280600a9060208202803883398082019150509050509056fea165627a7a723058205508e6125dfba2f742890a6191d54091a0f3c22d75e80622d6fa4aa68383ac7d0029",
  "source": "pragma solidity ^0.5.0;\r\n\r\ncontract Elections {\r\n\r\n    uint[10] public Nominees = [0,0,0,0,0,0,0,0,0,0]; // create the nomenees araay\r\n\r\n    function Vote(uint id) public returns (uint){ // vote for a nomenee         \r\n        require(id >= 0 && id <= 9);\r\n\r\n        Nominees[id]++;\r\n\r\n        return Nominees[id]; // returns the correct ammount of votes for this id\r\n    }\r\n\r\n    function getNominees_votes () public view returns(uint[10] memory){ // return the array of votes for the nomenees\r\n        return Nominees;\r\n    }\r\n\r\n\r\n\r\n\r\n}",
  "sourcePath": "C:/Users/buchy/Elections_truffle/contracts/elections.sol",
  "compiler": {
    "name": "solc",
    "version": "0.5.8+commit.23d335f2.Emscripten.clang"
  },
  "schemaVersion": "3.0.11",
  "updatedAt": "2019-07-13T11:04:45.565Z",
  "devdoc": {
    "methods": {}
  },
  "userdoc": {
    "methods": {}
  }
}